{
  "_format": "hh-sol-artifact-1",
  "contractName": "LMSRMarket",
  "sourceName": "src/prediction/LMSRMarket.sol",
  "abi": [
    {
      "inputs": [
        {
          "internalType": "bytes32",
          "name": "_projectId",
          "type": "bytes32"
        },
        {
          "internalType": "string",
          "name": "_question",
          "type": "string"
        },
        {
          "internalType": "uint256",
          "name": "_resolutionTime",
          "type": "uint256"
        },
        {
          "internalType": "address",
          "name": "_collateral",
          "type": "address"
        },
        {
          "internalType": "uint256",
          "name": "_b",
          "type": "uint256"
        },
        {
          "internalType": "address",
          "name": "_oracle",
          "type": "address"
        }
      ],
      "stateMutability": "nonpayable",
      "type": "constructor"
    },
    {
      "inputs": [],
      "name": "DivisionByZero",
      "type": "error"
    },
    {
      "inputs": [
        {
          "internalType": "int256",
          "name": "x",
          "type": "int256"
        }
      ],
      "name": "ExpOverflow",
      "type": "error"
    },
    {
      "inputs": [],
      "name": "InsufficientShares",
      "type": "error"
    },
    {
      "inputs": [
        {
          "internalType": "int256",
          "name": "x",
          "type": "int256"
        }
      ],
      "name": "LnNonPositive",
      "type": "error"
    },
    {
      "inputs": [],
      "name": "MarketAlreadyResolved",
      "type": "error"
    },
    {
      "inputs": [],
      "name": "MarketNotResolved",
      "type": "error"
    },
    {
      "inputs": [],
      "name": "OnlyOracle",
      "type": "error"
    },
    {
      "inputs": [],
      "name": "ReentrancyGuardReentrantCall",
      "type": "error"
    },
    {
      "inputs": [],
      "name": "ResolutionTimeNotReached",
      "type": "error"
    },
    {
      "inputs": [
        {
          "internalType": "address",
          "name": "token",
          "type": "address"
        }
      ],
      "name": "SafeERC20FailedOperation",
      "type": "error"
    },
    {
      "inputs": [],
      "name": "TransferFailed",
      "type": "error"
    },
    {
      "inputs": [],
      "name": "ZeroShares",
      "type": "error"
    },
    {
      "anonymous": false,
      "inputs": [
        {
          "indexed": false,
          "internalType": "bool",
          "name": "outcome",
          "type": "bool"
        },
        {
          "indexed": false,
          "internalType": "uint256",
          "name": "timestamp",
          "type": "uint256"
        }
      ],
      "name": "MarketResolved",
      "type": "event"
    },
    {
      "anonymous": false,
      "inputs": [
        {
          "indexed": true,
          "internalType": "address",
          "name": "buyer",
          "type": "address"
        },
        {
          "indexed": true,
          "internalType": "bool",
          "name": "isYes",
          "type": "bool"
        },
        {
          "indexed": false,
          "internalType": "uint256",
          "name": "shares",
          "type": "uint256"
        },
        {
          "indexed": false,
          "internalType": "uint256",
          "name": "cost",
          "type": "uint256"
        }
      ],
      "name": "SharesPurchased",
      "type": "event"
    },
    {
      "anonymous": false,
      "inputs": [
        {
          "indexed": true,
          "internalType": "address",
          "name": "seller",
          "type": "address"
        },
        {
          "indexed": true,
          "internalType": "bool",
          "name": "isYes",
          "type": "bool"
        },
        {
          "indexed": false,
          "internalType": "uint256",
          "name": "shares",
          "type": "uint256"
        },
        {
          "indexed": false,
          "internalType": "uint256",
          "name": "payout",
          "type": "uint256"
        }
      ],
      "name": "SharesSold",
      "type": "event"
    },
    {
      "anonymous": false,
      "inputs": [
        {
          "indexed": true,
          "internalType": "address",
          "name": "claimer",
          "type": "address"
        },
        {
          "indexed": false,
          "internalType": "uint256",
          "name": "amount",
          "type": "uint256"
        }
      ],
      "name": "WinningsClaimed",
      "type": "event"
    },
    {
      "inputs": [],
      "name": "b",
      "outputs": [
        {
          "internalType": "uint256",
          "name": "",
          "type": "uint256"
        }
      ],
      "stateMutability": "view",
      "type": "function"
    },
    {
      "inputs": [
        {
          "internalType": "uint256",
          "name": "shares",
          "type": "uint256"
        }
      ],
      "name": "buyNo",
      "outputs": [
        {
          "internalType": "uint256",
          "name": "cost",
          "type": "uint256"
        }
      ],
      "stateMutability": "nonpayable",
      "type": "function"
    },
    {
      "inputs": [
        {
          "internalType": "uint256",
          "name": "shares",
          "type": "uint256"
        }
      ],
      "name": "buyYes",
      "outputs": [
        {
          "internalType": "uint256",
          "name": "cost",
          "type": "uint256"
        }
      ],
      "stateMutability": "nonpayable",
      "type": "function"
    },
    {
      "inputs": [],
      "name": "claimWinnings",
      "outputs": [
        {
          "internalType": "uint256",
          "name": "winnings",
          "type": "uint256"
        }
      ],
      "stateMutability": "nonpayable",
      "type": "function"
    },
    {
      "inputs": [
        {
          "internalType": "address",
          "name": "account",
          "type": "address"
        }
      ],
      "name": "claimableWinnings",
      "outputs": [
        {
          "internalType": "uint256",
          "name": "",
          "type": "uint256"
        }
      ],
      "stateMutability": "view",
      "type": "function"
    },
    {
      "inputs": [
        {
          "internalType": "address",
          "name": "account",
          "type": "address"
        }
      ],
      "name": "claimableWinningsWad",
      "outputs": [
        {
          "internalType": "uint256",
          "name": "",
          "type": "uint256"
        }
      ],
      "stateMutability": "view",
      "type": "function"
    },
    {
      "inputs": [],
      "name": "collateral",
      "outputs": [
        {
          "internalType": "contract IERC20",
          "name": "",
          "type": "address"
        }
      ],
      "stateMutability": "view",
      "type": "function"
    },
    {
      "inputs": [],
      "name": "collateralDecimals",
      "outputs": [
        {
          "internalType": "uint8",
          "name": "",
          "type": "uint8"
        }
      ],
      "stateMutability": "view",
      "type": "function"
    },
    {
      "inputs": [],
      "name": "factory",
      "outputs": [
        {
          "internalType": "address",
          "name": "",
          "type": "address"
        }
      ],
      "stateMutability": "view",
      "type": "function"
    },
    {
      "inputs": [
        {
          "internalType": "bool",
          "name": "isYes",
          "type": "bool"
        },
        {
          "internalType": "uint256",
          "name": "shares",
          "type": "uint256"
        }
      ],
      "name": "getCostToBuy",
      "outputs": [
        {
          "internalType": "uint256",
          "name": "",
          "type": "uint256"
        }
      ],
      "stateMutability": "view",
      "type": "function"
    },
    {
      "inputs": [
        {
          "internalType": "bool",
          "name": "isYes",
          "type": "bool"
        },
        {
          "internalType": "uint256",
          "name": "shares",
          "type": "uint256"
        }
      ],
      "name": "getCostToBuyWad",
      "outputs": [
        {
          "internalType": "uint256",
          "name": "",
          "type": "uint256"
        }
      ],
      "stateMutability": "view",
      "type": "function"
    },
    {
      "inputs": [],
      "name": "getCurrentCost",
      "outputs": [
        {
          "internalType": "uint256",
          "name": "",
          "type": "uint256"
        }
      ],
      "stateMutability": "view",
      "type": "function"
    },
    {
      "inputs": [],
      "name": "getNoPrice",
      "outputs": [
        {
          "internalType": "uint256",
          "name": "",
          "type": "uint256"
        }
      ],
      "stateMutability": "view",
      "type": "function"
    },
    {
      "inputs": [
        {
          "internalType": "bool",
          "name": "isYes",
          "type": "bool"
        },
        {
          "internalType": "uint256",
          "name": "shares",
          "type": "uint256"
        }
      ],
      "name": "getPayoutToSell",
      "outputs": [
        {
          "internalType": "uint256",
          "name": "",
          "type": "uint256"
        }
      ],
      "stateMutability": "view",
      "type": "function"
    },
    {
      "inputs": [
        {
          "internalType": "bool",
          "name": "isYes",
          "type": "bool"
        },
        {
          "internalType": "uint256",
          "name": "shares",
          "type": "uint256"
        }
      ],
      "name": "getPayoutToSellWad",
      "outputs": [
        {
          "internalType": "uint256",
          "name": "",
          "type": "uint256"
        }
      ],
      "stateMutability": "view",
      "type": "function"
    },
    {
      "inputs": [],
      "name": "getYesPrice",
      "outputs": [
        {
          "internalType": "uint256",
          "name": "",
          "type": "uint256"
        }
      ],
      "stateMutability": "view",
      "type": "function"
    },
    {
      "inputs": [],
      "name": "noShares",
      "outputs": [
        {
          "internalType": "uint256",
          "name": "",
          "type": "uint256"
        }
      ],
      "stateMutability": "view",
      "type": "function"
    },
    {
      "inputs": [],
      "name": "noToken",
      "outputs": [
        {
          "internalType": "contract OutcomeToken",
          "name": "",
          "type": "address"
        }
      ],
      "stateMutability": "view",
      "type": "function"
    },
    {
      "inputs": [],
      "name": "oracle",
      "outputs": [
        {
          "internalType": "address",
          "name": "",
          "type": "address"
        }
      ],
      "stateMutability": "view",
      "type": "function"
    },
    {
      "inputs": [],
      "name": "outcome",
      "outputs": [
        {
          "internalType": "bool",
          "name": "",
          "type": "bool"
        }
      ],
      "stateMutability": "view",
      "type": "function"
    },
    {
      "inputs": [],
      "name": "projectId",
      "outputs": [
        {
          "internalType": "bytes32",
          "name": "",
          "type": "bytes32"
        }
      ],
      "stateMutability": "view",
      "type": "function"
    },
    {
      "inputs": [],
      "name": "question",
      "outputs": [
        {
          "internalType": "string",
          "name": "",
          "type": "string"
        }
      ],
      "stateMutability": "view",
      "type": "function"
    },
    {
      "inputs": [],
      "name": "resolutionTime",
      "outputs": [
        {
          "internalType": "uint256",
          "name": "",
          "type": "uint256"
        }
      ],
      "stateMutability": "view",
      "type": "function"
    },
    {
      "inputs": [
        {
          "internalType": "bool",
          "name": "_outcome",
          "type": "bool"
        }
      ],
      "name": "resolve",
      "outputs": [],
      "stateMutability": "nonpayable",
      "type": "function"
    },
    {
      "inputs": [],
      "name": "resolved",
      "outputs": [
        {
          "internalType": "bool",
          "name": "",
          "type": "bool"
        }
      ],
      "stateMutability": "view",
      "type": "function"
    },
    {
      "inputs": [
        {
          "internalType": "uint256",
          "name": "shares",
          "type": "uint256"
        }
      ],
      "name": "sellNo",
      "outputs": [
        {
          "internalType": "uint256",
          "name": "payout",
          "type": "uint256"
        }
      ],
      "stateMutability": "nonpayable",
      "type": "function"
    },
    {
      "inputs": [
        {
          "internalType": "uint256",
          "name": "shares",
          "type": "uint256"
        }
      ],
      "name": "sellYes",
      "outputs": [
        {
          "internalType": "uint256",
          "name": "payout",
          "type": "uint256"
        }
      ],
      "stateMutability": "nonpayable",
      "type": "function"
    },
    {
      "inputs": [],
      "name": "yesShares",
      "outputs": [
        {
          "internalType": "uint256",
          "name": "",
          "type": "uint256"
        }
      ],
      "stateMutability": "view",
      "type": "function"
    },
    {
      "inputs": [],
      "name": "yesToken",
      "outputs": [
        {
          "internalType": "contract OutcomeToken",
          "name": "",
          "type": "address"
        }
      ],
      "stateMutability": "view",
      "type": "function"
    }
  ],
  "bytecode": "0x6101a06040523480156200001257600080fd5b50604051620039e9380380620039e98339810160408190526200003591620004a7565b60016000556001600160a01b038316620000965760405162461bcd60e51b815260206004820152601b60248201527f4c4d53524d61726b65743a207a65726f20636f6c6c61746572616c000000000060448201526064015b60405180910390fd5b6001600160a01b038116620000ee5760405162461bcd60e51b815260206004820152601760248201527f4c4d53524d61726b65743a207a65726f206f7261636c6500000000000000000060448201526064016200008d565b60008211620001405760405162461bcd60e51b815260206004820152601e60248201527f4c4d53524d61726b65743a2062206d75737420626520706f736974697665000060448201526064016200008d565b4284116200019d5760405162461bcd60e51b815260206004820152602360248201527f4c4d53524d61726b65743a207265736f6c7574696f6e2074696d6520696e2070604482015262185cdd60ea1b60648201526084016200008d565b60808690526001620001b0868262000634565b5060a08490526001600160a01b0383166101008190526040805163313ce56760e01b8152905163313ce567916004808201926020929091908290030181865afa15801562000202573d6000803e3d6000fd5b505050506040513d601f19601f8201168201806040525081019062000228919062000700565b60ff16610120526101408290526001600160a01b0381166101605233610180526000620002558762000381565b9050806040516020016200026a91906200072c565b604051602081830303815290604052816040516020016200028c91906200072c565b604051602081830303815290604052306001604051620002ac9062000440565b620002bb949392919062000788565b604051809103906000f080158015620002d8573d6000803e3d6000fd5b506001600160a01b031660c052604051620002f8908290602001620007d3565b604051602081830303815290604052816040516020016200031a9190620007d3565b6040516020818303038152906040523060006040516200033a9062000440565b62000349949392919062000788565b604051809103906000f08015801562000366573d6000803e3d6000fd5b506001600160a01b031660e052506200081695505050505050565b6040805160088082528183019092526060916000919060208201818036833701905050905060005b600881101562000439576000848260208110620003ca57620003ca62000800565b1a60f81b90507fff00000000000000000000000000000000000000000000000000000000000000811660000362000402575062000439565b8083838151811062000418576200041862000800565b60200101906001600160f81b031916908160001a90535050600101620003a9565b5092915050565b610cd78062002d1283390190565b634e487b7160e01b600052604160045260246000fd5b60005b838110156200048157818101518382015260200162000467565b50506000910152565b80516001600160a01b0381168114620004a257600080fd5b919050565b60008060008060008060c08789031215620004c157600080fd5b865160208801519096506001600160401b0380821115620004e157600080fd5b818901915089601f830112620004f657600080fd5b8151818111156200050b576200050b6200044e565b604051601f8201601f19908116603f011681019083821181831017156200053657620005366200044e565b816040528281528c60208487010111156200055057600080fd5b6200056383602083016020880162000464565b80995050505050506040870151935062000580606088016200048a565b9250608087015191506200059760a088016200048a565b90509295509295509295565b600181811c90821680620005b857607f821691505b602082108103620005d957634e487b7160e01b600052602260045260246000fd5b50919050565b601f8211156200062f576000816000526020600020601f850160051c810160208610156200060a5750805b601f850160051c820191505b818110156200062b5782815560010162000616565b5050505b505050565b81516001600160401b038111156200065057620006506200044e565b6200066881620006618454620005a3565b84620005df565b602080601f831160018114620006a05760008415620006875750858301515b600019600386901b1c1916600185901b1785556200062b565b600085815260208120601f198616915b82811015620006d157888601518255948401946001909101908401620006b0565b5085821015620006f05787850151600019600388901b60f8161c191681555b5050505050600190811b01905550565b6000602082840312156200071357600080fd5b815160ff811681146200072557600080fd5b9392505050565b635945532d60e01b8152600082516200074d81600485016020870162000464565b9190910160040192915050565b600081518084526200077481602086016020860162000464565b601f01601f19169290920160200192915050565b6080815260006200079d60808301876200075a565b8281036020840152620007b181876200075a565b6001600160a01b03959095166040840152505090151560609091015292915050565b624e4f2d60e81b815260008251620007f381600385016020870162000464565b9190910160030192915050565b634e487b7160e01b600052603260045260246000fd5b60805160a05160c05160e05161010051610120516101405161016051610180516123c06200095260003960006103b001526000818161035e01526106830152600081816102fe0152818161063f01528181610e6401528181610e9801528181610ec90152818161141c015261144f0152600081816104240152818161158601526115b80152600081816103ea015281816105220152818161095401528181610ace0152818161117201526113ab01526000818161022701528181610b2901528181610c0b01528181610d4b01528181611058015281816110ef01528181611243015261132201526000818161045d0152818161057d015281816107ec015281816108cb01528181610c9a01528181610dda01528181610f420152610fd901526000818161048401526106e7015260006102d701526123c06000f3fe608060405234801561001057600080fd5b50600436106101cf5760003560e01c8063652f663111610104578063c45a0155116100a2578063ec9c6c3011610071578063ec9c6c301461041f578063f0d9bb2014610458578063f3e41e901461047f578063fb2274cb146104a657600080fd5b8063c45a0155146103ab578063c545ab54146103d2578063d8dfeb45146103e5578063e8d8a4dc1461040c57600080fd5b8063831e60de116100de578063831e60de14610380578063851df56c146103885780638779086f1461039b578063b401faf1146103a357600080fd5b8063652f66311461033357806376dd463d146103465780637dc0d1d01461035957600080fd5b806327793f87116101715780633fad9ae01161014b5780633fad9ae0146102bd5780633fafa127146102d25780634df7e3d0146102f957806358c36e5c1461032057600080fd5b806327793f871461028557806327c7ff61146102a75780633f6fa655146102b057600080fd5b806311a9f10a116101ad57806311a9f10a1461022257806311f957fd1461026157806312b01b161461027457806316953f021461027c57600080fd5b8063061dd98d146101d457806308780be0146101fa5780630bede3f81461020d575b600080fd5b6101e76101e2366004611fc3565b6104b9565b6040519081526020015b60405180910390f35b6101e7610208366004611fec565b61062f565b61022061021b366004612016565b610678565b005b6102497f000000000000000000000000000000000000000000000000000000000000000081565b6040516001600160a01b0390911681526020016101f1565b6101e761026f366004611fc3565b610786565b6101e76109b6565b6101e760035481565b60025461029790610100900460ff1681565b60405190151581526020016101f1565b6101e760045481565b6002546102979060ff1681565b6102c56109d7565b6040516101f19190612031565b6101e77f000000000000000000000000000000000000000000000000000000000000000081565b6101e77f000000000000000000000000000000000000000000000000000000000000000081565b6101e761032e366004611fc3565b610a65565b6101e7610341366004612080565b610bc8565b6101e7610354366004612080565b610d05565b6102497f000000000000000000000000000000000000000000000000000000000000000081565b6101e7610e57565b6101e7610396366004611fec565b610e88565b6101e7610ebc565b6101e7610eed565b6102497f000000000000000000000000000000000000000000000000000000000000000081565b6101e76103e0366004611fc3565b6111dd565b6102497f000000000000000000000000000000000000000000000000000000000000000081565b6101e761041a366004611fec565b61140d565b6104467f000000000000000000000000000000000000000000000000000000000000000081565b60405160ff90911681526020016101f1565b6102497f000000000000000000000000000000000000000000000000000000000000000081565b6101e77f000000000000000000000000000000000000000000000000000000000000000081565b6101e76104b4366004611fec565b611440565b60006104c3611473565b60025460ff16156104e75760405163aa43cb2d60e01b815260040160405180910390fd5b8160000361050857604051639811e0c760e01b815260040160405180910390fd5b610513600183610e88565b905061054a6001600160a01b037f00000000000000000000000000000000000000000000000000000000000000001633308461149d565b816003600082825461055c91906120bf565b90915550506040516340c10f1960e01b8152336004820152602481018390527f00000000000000000000000000000000000000000000000000000000000000006001600160a01b0316906340c10f1990604401600060405180830381600087803b1580156105c957600080fd5b505af11580156105dd573d6000803e3d6000fd5b50506040805185815260208101859052600193503392507f9bd054fb950acb82b978a4ba93668286e2c3fa8c43589f21061c8520068ba80c91015b60405180910390a361062a6001600055565b919050565b60008061066384846003546004547f000000000000000000000000000000000000000000000000000000000000000061150a565b905061066e81611582565b9150505b92915050565b336001600160a01b037f000000000000000000000000000000000000000000000000000000000000000016146106c1576040516380fee10560e01b815260040160405180910390fd5b60025460ff16156106e55760405163aa43cb2d60e01b815260040160405180910390fd5b7f00000000000000000000000000000000000000000000000000000000000000004210156107265760405163dca075a360e01b815260040160405180910390fd5b600280548215156101000261ffff199091161760011790556040517ff680d0bd10cbd56c6089965028487f8751c5e7485ee076c45e809af3357408b39061077b90839042909115158252602082015260400190565b60405180910390a150565b6000610790611473565b60025460ff16156107b45760405163aa43cb2d60e01b815260040160405180910390fd5b816000036107d557604051639811e0c760e01b815260040160405180910390fd5b6040516370a0823160e01b815233600482015282907f00000000000000000000000000000000000000000000000000000000000000006001600160a01b0316906370a0823190602401602060405180830381865afa15801561083b573d6000803e3d6000fd5b505050506040513d601f19601f8201168201806040525081019061085f91906120d2565b101561087e57604051633999656760e01b815260040160405180910390fd5b6003548211156108a157604051633999656760e01b815260040160405180910390fd5b6108ac60018361062f565b604051632770a7eb60e21b8152336004820152602481018490529091507f00000000000000000000000000000000000000000000000000000000000000006001600160a01b031690639dc29fac90604401600060405180830381600087803b15801561091757600080fd5b505af115801561092b573d6000803e3d6000fd5b50505050816003600082825461094191906120eb565b9091555061097b90506001600160a01b037f00000000000000000000000000000000000000000000000000000000000000001633836115f3565b604080518381526020810183905260019133917fcf06b88583ec57d4cf2f6795931fe9057d95a86052efc8d8b3a4cad0e885d5e99101610618565b60006109c0610ebc565b6109d290670de0b6b3a76400006120eb565b905090565b600180546109e4906120fe565b80601f0160208091040260200160405190810160405280929190818152602001828054610a10906120fe565b8015610a5d5780601f10610a3257610100808354040283529160200191610a5d565b820191906000526020600020905b815481529060010190602001808311610a4057829003601f168201915b505050505081565b6000610a6f611473565b60025460ff1615610a935760405163aa43cb2d60e01b815260040160405180910390fd5b81600003610ab457604051639811e0c760e01b815260040160405180910390fd5b610abf600083610e88565b9050610af66001600160a01b037f00000000000000000000000000000000000000000000000000000000000000001633308461149d565b8160046000828254610b0891906120bf565b90915550506040516340c10f1960e01b8152336004820152602481018390527f00000000000000000000000000000000000000000000000000000000000000006001600160a01b0316906340c10f1990604401600060405180830381600087803b158015610b7557600080fd5b505af1158015610b89573d6000803e3d6000fd5b50506040805185815260208101859052600093503392507f9bd054fb950acb82b978a4ba93668286e2c3fa8c43589f21061c8520068ba80c9101610618565b60025460009060ff16610bdd57506000919050565b600254610100900460ff16610c7b576040516370a0823160e01b81526001600160a01b0383811660048301527f000000000000000000000000000000000000000000000000000000000000000016906370a0823190602401602060405180830381865afa158015610c52573d6000803e3d6000fd5b505050506040513d601f19601f82011682018060405250810190610c7691906120d2565b610672565b6040516370a0823160e01b81526001600160a01b0383811660048301527f000000000000000000000000000000000000000000000000000000000000000016906370a0823190602401602060405180830381865afa158015610ce1573d6000803e3d6000fd5b505050506040513d601f19601f8201168201806040525081019061067291906120d2565b60025460009060ff16610d1a57506000919050565b600254600090610100900460ff16610dbb576040516370a0823160e01b81526001600160a01b0384811660048301527f000000000000000000000000000000000000000000000000000000000000000016906370a0823190602401602060405180830381865afa158015610d92573d6000803e3d6000fd5b505050506040513d601f19601f82011682018060405250810190610db691906120d2565b610e45565b6040516370a0823160e01b81526001600160a01b0384811660048301527f000000000000000000000000000000000000000000000000000000000000000016906370a0823190602401602060405180830381865afa158015610e21573d6000803e3d6000fd5b505050506040513d601f19601f82011682018060405250810190610e4591906120d2565b9050610e5081611582565b9392505050565b60006109d26003546004547f0000000000000000000000000000000000000000000000000000000000000000611629565b60008061066384846003546004547f0000000000000000000000000000000000000000000000000000000000000000611767565b60006109d26003546004547f00000000000000000000000000000000000000000000000000000000000000006117d1565b6000610ef7611473565b60025460ff16610f1a5760405163174b639360e11b815260040160405180910390fd5b600254600090610100900460ff1615611043576040516370a0823160e01b81523360048201527f00000000000000000000000000000000000000000000000000000000000000006001600160a01b0316906370a0823190602401602060405180830381865afa158015610f91573d6000803e3d6000fd5b505050506040513d601f19601f82011682018060405250810190610fb591906120d2565b9050801561103e57604051632770a7eb60e21b8152336004820152602481018290527f00000000000000000000000000000000000000000000000000000000000000006001600160a01b031690639dc29fac90604401600060405180830381600087803b15801561102557600080fd5b505af1158015611039573d6000803e3d6000fd5b505050505b611154565b6040516370a0823160e01b81523360048201527f00000000000000000000000000000000000000000000000000000000000000006001600160a01b0316906370a0823190602401602060405180830381865afa1580156110a7573d6000803e3d6000fd5b505050506040513d601f19601f820116820180604052508101906110cb91906120d2565b9050801561115457604051632770a7eb60e21b8152336004820152602481018290527f00000000000000000000000000000000000000000000000000000000000000006001600160a01b031690639dc29fac90604401600060405180830381600087803b15801561113b57600080fd5b505af115801561114f573d6000803e3d6000fd5b505050505b80156111cf5761116381611582565b91506111996001600160a01b037f00000000000000000000000000000000000000000000000000000000000000001633846115f3565b60405182815233907f1a31e733a172afcf46074b3106c17f0c298e226442682a03c1e99ce256139ec29060200160405180910390a25b506111da6001600055565b90565b60006111e7611473565b60025460ff161561120b5760405163aa43cb2d60e01b815260040160405180910390fd5b8160000361122c57604051639811e0c760e01b815260040160405180910390fd5b6040516370a0823160e01b815233600482015282907f00000000000000000000000000000000000000000000000000000000000000006001600160a01b0316906370a0823190602401602060405180830381865afa158015611292573d6000803e3d6000fd5b505050506040513d601f19601f820116820180604052508101906112b691906120d2565b10156112d557604051633999656760e01b815260040160405180910390fd5b6004548211156112f857604051633999656760e01b815260040160405180910390fd5b61130360008361062f565b604051632770a7eb60e21b8152336004820152602481018490529091507f00000000000000000000000000000000000000000000000000000000000000006001600160a01b031690639dc29fac90604401600060405180830381600087803b15801561136e57600080fd5b505af1158015611382573d6000803e3d6000fd5b50505050816004600082825461139891906120eb565b909155506113d290506001600160a01b037f00000000000000000000000000000000000000000000000000000000000000001633836115f3565b604080518381526020810183905260009133917fcf06b88583ec57d4cf2f6795931fe9057d95a86052efc8d8b3a4cad0e885d5e99101610618565b6000610e5083836003546004547f0000000000000000000000000000000000000000000000000000000000000000611767565b6000610e5083836003546004547f000000000000000000000000000000000000000000000000000000000000000061150a565b60026000540361149657604051633ee5aeb560e01b815260040160405180910390fd5b6002600055565b6040516001600160a01b0384811660248301528381166044830152606482018390526115049186918216906323b872dd906084015b604051602081830303815290604052915060e01b6020820180516001600160e01b038381831617835250505050611905565b50505050565b600080611518858585611629565b90506000876115275785611531565b61153187876120eb565b90506000886115495761154488876120eb565b61154b565b855b9050600061155a838388611629565b905080841161156a576000611574565b61157481856120eb565b9a9950505050505050505050565b60007f000000000000000000000000000000000000000000000000000000000000000060ff166012036115b3575090565b6115de7f00000000000000000000000000000000000000000000000000000000000000006012612138565b6115e990600a612235565b610672908361225a565b6040516001600160a01b0383811660248301526044820183905261162491859182169063a9059cbb906064016114d2565b505050565b600080821161167a5760405162461bcd60e51b81526020600482015260186024820152774c4d53523a2062206d75737420626520706f73697469766560401b60448201526064015b60405180910390fd5b60008261168f670de0b6b3a76400008761226e565b611699919061225a565b90506000836116b0670de0b6b3a76400008761226e565b6116ba919061225a565b905060008183136116cb57816116cd565b825b905060008284136116de57836116e0565b825b905060006116ee8383612285565b905060006116fb82611976565b9050600061171961171483670de0b6b3a76400006122ac565b611d24565b61172390866122ac565b90506000670de0b6b3a764000061173a838c6122d4565b6117449190612304565b905060008113611755576000611757565b805b9c9b505050505050505050505050565b600080611775858585611629565b9050600087611784578561178e565b61178e87876120bf565b90506000886117a6576117a188876120bf565b6117a8565b855b905060006117b7838388611629565b90508381116117c7576000611574565b61157484826120eb565b600080821161181d5760405162461bcd60e51b81526020600482015260186024820152774c4d53523a2062206d75737420626520706f73697469766560401b6044820152606401611671565b600082670de0b6b3a76400006118338787612285565b61183d91906122d4565b6118479190612304565b905061185c670de0b6b3a764000060826122d4565b81131561186d576000915050610e50565b611881670de0b6b3a76400006028196122d4565b81121561189957670de0b6b3a7640000915050610e50565b60006118a482611976565b905060006118ba82670de0b6b3a76400006122ac565b9050806000036118dd576040516323d359a360e01b815260040160405180910390fd5b806118f0670de0b6b3a76400008061226e565b6118fa919061225a565b979650505050505050565b600080602060008451602086016000885af180611928576040513d6000823e3d81fd5b50506000513d9150811561194057806001141561194d565b6001600160a01b0384163b155b1561150457604051635274afe760e01b81526001600160a01b0385166004820152602401611671565b600061198b670de0b6b3a764000060826122d4565b8213156119ae576040516333147be560e11b815260048101839052602401611671565b6119c2670de0b6b3a76400006028196122d4565b8212156119d157506000919050565b6000821280156119e7576119e483612332565b92505b60006119fb67099e8db03256ce5d85612304565b90506000611a1167099e8db03256ce5d836122d4565b611a1b9086612285565b9050670de0b6b3a764000081611a3181836122ac565b91506002670de0b6b3a7640000611a4885846122d4565b611a529190612304565b611a5c9190612304565b9050611a6881836122ac565b91506003670de0b6b3a7640000611a7f85846122d4565b611a899190612304565b611a939190612304565b9050611a9f81836122ac565b91506004670de0b6b3a7640000611ab685846122d4565b611ac09190612304565b611aca9190612304565b9050611ad681836122ac565b91506005670de0b6b3a7640000611aed85846122d4565b611af79190612304565b611b019190612304565b9050611b0d81836122ac565b91506006670de0b6b3a7640000611b2485846122d4565b611b2e9190612304565b611b389190612304565b9050611b4481836122ac565b91506007670de0b6b3a7640000611b5b85846122d4565b611b659190612304565b611b6f9190612304565b9050611b7b81836122ac565b91506008670de0b6b3a7640000611b9285846122d4565b611b9c9190612304565b611ba69190612304565b9050611bb281836122ac565b91506009670de0b6b3a7640000611bc985846122d4565b611bd39190612304565b611bdd9190612304565b9050611be981836122ac565b9150600a670de0b6b3a7640000611c0085846122d4565b611c0a9190612304565b611c149190612304565b9050611c2081836122ac565b9150600b670de0b6b3a7640000611c3785846122d4565b611c419190612304565b611c4b9190612304565b9050611c5781836122ac565b9150600c670de0b6b3a7640000611c6e85846122d4565b611c789190612304565b611c829190612304565b9050611c8e81836122ac565b91506000841315611cbf5760005b84811215611cb957611caf8360026122d4565b9250600101611c9c565b50611cf4565b6000841215611cf45760005b84811315611cf257611cde600284612304565b925080611cea8161234e565b915050611ccb565b505b8415611d1a5781611d0d670de0b6b3a7640000806122d4565b611d179190612304565b91505b5095945050505050565b6000808213611d495760405163d1fd626b60e01b815260048101839052602401611671565b6000825b611d60670de0b6b3a764000060026122d4565b8112611d8557611d71600282612304565b905081611d7d8161236b565b925050611d4d565b670de0b6b3a7640000811215611db457611da08160026122d4565b905081611dac8161234e565b925050611d85565b6000611dc8670de0b6b3a7640000836122ac565b670de0b6b3a7640000611ddb8185612285565b611de591906122d4565b611def9190612304565b90506000670de0b6b3a7640000611e0683806122d4565b611e109190612304565b90508180670de0b6b3a7640000611e2784836122d4565b611e319190612304565b9050611e3e600382612304565b611e4890836122ac565b9150670de0b6b3a7640000611e5d84836122d4565b611e679190612304565b9050611e74600582612304565b611e7e90836122ac565b9150670de0b6b3a7640000611e9384836122d4565b611e9d9190612304565b9050611eaa600782612304565b611eb490836122ac565b9150670de0b6b3a7640000611ec984836122d4565b611ed39190612304565b9050611ee0600982612304565b611eea90836122ac565b9150670de0b6b3a7640000611eff84836122d4565b611f099190612304565b9050611f16600b82612304565b611f2090836122ac565b9150670de0b6b3a7640000611f3584836122d4565b611f3f9190612304565b9050611f4c600d82612304565b611f5690836122ac565b9150670de0b6b3a7640000611f6b84836122d4565b611f759190612304565b9050611f82600f82612304565b611f8c90836122ac565b9150611f998260026122d4565b9150611fad67099e8db03256ce5d876122d4565b611fb790836122ac565b98975050505050505050565b600060208284031215611fd557600080fd5b5035919050565b8035801515811461062a57600080fd5b60008060408385031215611fff57600080fd5b61200883611fdc565b946020939093013593505050565b60006020828403121561202857600080fd5b610e5082611fdc565b60006020808352835180602085015260005b8181101561205f57858101830151858201604001528201612043565b506000604082860101526040601f19601f8301168501019250505092915050565b60006020828403121561209257600080fd5b81356001600160a01b0381168114610e5057600080fd5b634e487b7160e01b600052601160045260246000fd5b80820180821115610672576106726120a9565b6000602082840312156120e457600080fd5b5051919050565b81810381811115610672576106726120a9565b600181811c9082168061211257607f821691505b60208210810361213257634e487b7160e01b600052602260045260246000fd5b50919050565b60ff8281168282160390811115610672576106726120a9565b600181815b8085111561218c578160001904821115612172576121726120a9565b8085161561217f57918102915b93841c9390800290612156565b509250929050565b6000826121a357506001610672565b816121b057506000610672565b81600181146121c657600281146121d0576121ec565b6001915050610672565b60ff8411156121e1576121e16120a9565b50506001821b610672565b5060208310610133831016604e8410600b841016171561220f575081810a610672565b6122198383612151565b806000190482111561222d5761222d6120a9565b029392505050565b6000610e5060ff841683612194565b634e487b7160e01b600052601260045260246000fd5b60008261226957612269612244565b500490565b8082028115828204841417610672576106726120a9565b81810360008312801583831316838312821617156122a5576122a56120a9565b5092915050565b80820182811260008312801582168215821617156122cc576122cc6120a9565b505092915050565b80820260008212600160ff1b841416156122f0576122f06120a9565b8181058314821517610672576106726120a9565b60008261231357612313612244565b600160ff1b82146000198414161561232d5761232d6120a9565b500590565b6000600160ff1b8201612347576123476120a9565b5060000390565b6000600160ff1b8201612363576123636120a9565b506000190190565b60006001600160ff1b018201612383576123836120a9565b506001019056fea26469706673582212200d1e22a2be2b4cd60b2d1046654d65960d602fa8d805f3482429a91a4b21662964736f6c6343000818003360c06040523480156200001157600080fd5b5060405162000cd738038062000cd783398101604081905262000034916200019f565b83836003620000448382620002d5565b506004620000538282620002d5565b5050506001600160a01b038216620000bb5760405162461bcd60e51b815260206004820152602160248201527f4f7574636f6d65546f6b656e3a207a65726f206d61726b6574206164647265736044820152607360f81b606482015260840160405180910390fd5b6001600160a01b03909116608052151560a05250620003a19050565b634e487b7160e01b600052604160045260246000fd5b600082601f830112620000ff57600080fd5b81516001600160401b03808211156200011c576200011c620000d7565b604051601f8301601f19908116603f01168101908282118183101715620001475762000147620000d7565b81604052838152602092508660208588010111156200016557600080fd5b600091505b838210156200018957858201830151818301840152908201906200016a565b6000602085830101528094505050505092915050565b60008060008060808587031215620001b657600080fd5b84516001600160401b0380821115620001ce57600080fd5b620001dc88838901620000ed565b95506020870151915080821115620001f357600080fd5b506200020287828801620000ed565b604087015190945090506001600160a01b03811681146200022257600080fd5b606086015190925080151581146200023957600080fd5b939692955090935050565b600181811c908216806200025957607f821691505b6020821081036200027a57634e487b7160e01b600052602260045260246000fd5b50919050565b601f821115620002d0576000816000526020600020601f850160051c81016020861015620002ab5750805b601f850160051c820191505b81811015620002cc57828155600101620002b7565b5050505b505050565b81516001600160401b03811115620002f157620002f1620000d7565b620003098162000302845462000244565b8462000280565b602080601f831160018114620003415760008415620003285750858301515b600019600386901b1c1916600185901b178555620002cc565b600085815260208120601f198616915b82811015620003725788860151825594840194600190910190840162000351565b5085821015620003915787850151600019600388901b60f8161c191681555b5050505050600190811b01905550565b60805160a051610902620003d560003960006101e601526000818161018c0152818161032f015261039501526109026000f3fe608060405234801561001057600080fd5b50600436106100cf5760003560e01c806370a082311161008c5780639dc29fac116100665780639dc29fac146101ce578063a77df1c9146101e1578063a9059cbb14610208578063dd62ed3e1461021b57600080fd5b806370a082311461015e57806380f556051461018757806395d89b41146101c657600080fd5b806306fdde03146100d4578063095ea7b3146100f257806318160ddd1461011557806323b872dd14610127578063313ce5671461013a57806340c10f1914610149575b600080fd5b6100dc610254565b6040516100e9919061074b565b60405180910390f35b6101056101003660046107b6565b6102e6565b60405190151581526020016100e9565b6002545b6040519081526020016100e9565b6101056101353660046107e0565b610300565b604051601281526020016100e9565b61015c6101573660046107b6565b610324565b005b61011961016c36600461081c565b6001600160a01b031660009081526020819052604090205490565b6101ae7f000000000000000000000000000000000000000000000000000000000000000081565b6040516001600160a01b0390911681526020016100e9565b6100dc61037b565b61015c6101dc3660046107b6565b61038a565b6101057f000000000000000000000000000000000000000000000000000000000000000081565b6101056102163660046107b6565b6103dd565b61011961022936600461083e565b6001600160a01b03918216600090815260016020908152604080832093909416825291909152205490565b60606003805461026390610871565b80601f016020809104026020016040519081016040528092919081815260200182805461028f90610871565b80156102dc5780601f106102b1576101008083540402835291602001916102dc565b820191906000526020600020905b8154815290600101906020018083116102bf57829003601f168201915b5050505050905090565b6000336102f48185856103eb565b60019150505b92915050565b60003361030e8582856103fd565b610319858585610481565b506001949350505050565b336001600160a01b037f0000000000000000000000000000000000000000000000000000000000000000161461036d57604051639e0125a960e01b815260040160405180910390fd5b61037782826104e0565b5050565b60606004805461026390610871565b336001600160a01b037f000000000000000000000000000000000000000000000000000000000000000016146103d357604051639e0125a960e01b815260040160405180910390fd5b6103778282610516565b6000336102f4818585610481565b6103f8838383600161054c565b505050565b6001600160a01b0383811660009081526001602090815260408083209386168352929052205460001981101561047b578181101561046c57604051637dc7a0d960e11b81526001600160a01b038416600482015260248101829052604481018390526064015b60405180910390fd5b61047b8484848403600061054c565b50505050565b6001600160a01b0383166104ab57604051634b637e8f60e11b815260006004820152602401610463565b6001600160a01b0382166104d55760405163ec442f0560e01b815260006004820152602401610463565b6103f8838383610621565b6001600160a01b03821661050a5760405163ec442f0560e01b815260006004820152602401610463565b61037760008383610621565b6001600160a01b03821661054057604051634b637e8f60e11b815260006004820152602401610463565b61037782600083610621565b6001600160a01b0384166105765760405163e602df0560e01b815260006004820152602401610463565b6001600160a01b0383166105a057604051634a1406b160e11b815260006004820152602401610463565b6001600160a01b038085166000908152600160209081526040808320938716835292905220829055801561047b57826001600160a01b0316846001600160a01b03167f8c5be1e5ebec7d5bd14f71427d1e84f3dd0314c0f7b2291e5b200ac8c7c3b9258460405161061391815260200190565b60405180910390a350505050565b6001600160a01b03831661064c57806002600082825461064191906108ab565b909155506106be9050565b6001600160a01b0383166000908152602081905260409020548181101561069f5760405163391434e360e21b81526001600160a01b03851660048201526024810182905260448101839052606401610463565b6001600160a01b03841660009081526020819052604090209082900390555b6001600160a01b0382166106da576002805482900390556106f9565b6001600160a01b03821660009081526020819052604090208054820190555b816001600160a01b0316836001600160a01b03167fddf252ad1be2c89b69c2b068fc378daa952ba7f163c4a11628f55a4df523b3ef8360405161073e91815260200190565b60405180910390a3505050565b60006020808352835180602085015260005b818110156107795785810183015185820160400152820161075d565b506000604082860101526040601f19601f8301168501019250505092915050565b80356001600160a01b03811681146107b157600080fd5b919050565b600080604083850312156107c957600080fd5b6107d28361079a565b946020939093013593505050565b6000806000606084860312156107f557600080fd5b6107fe8461079a565b925061080c6020850161079a565b9150604084013590509250925092565b60006020828403121561082e57600080fd5b6108378261079a565b9392505050565b6000806040838503121561085157600080fd5b61085a8361079a565b91506108686020840161079a565b90509250929050565b600181811c9082168061088557607f821691505b6020821081036108a557634e487b7160e01b600052602260045260246000fd5b50919050565b808201808211156102fa57634e487b7160e01b600052601160045260246000fdfea264697066735822122080c0e853177be7819da166e7ef2ccc2de4ac89ae619510269c7a220a5b70f86d64736f6c63430008180033",
  "linkReferences": {},
  "deployedLinkReferences": {}
}